:100000000C942A000C9447000C9447000C94470071
:100010000C9447000C9447000C9447000C94470044
:100020000C9447000C9447000C9447000C94470034
:100030000C9447000C9447000C9447000C94470024
:100040000C9447000C9447000C9447000C94470014
:100050000C94470011241FBECFE5D8E0DEBFCDBF12
:1000600010E0A0E6B0E0E4EDFAE002C005900D92E9
:10007000A038B107D9F710E0A0E8B0E001C01D92A8
:10008000A238B107E1F70E94FE040C9468050C94B5
:100090000000DF93CF93CDB7DEB72C970FB6F8945F
:1000A000DEBF0FBECDBF69877A878B879C87898526
:1000B0009A85AB85BC8520E43FE140E050E0BC017F
:1000C000CD010E942705DC01CB018A569340A04058
:1000D000B0402BE230E040E050E0BC01CD010E9496
:1000E0004605DA01C90189839A83AB83BC831D82EB
:1000F0001E821F8218860CC000008D819E81AF81F8
:10010000B8850196A11DB11D8D839E83AF83B887ED
:100110002D813E814F81588589819A81AB81BC8137
:10012000281739074A075B0738F32C960FB6F8945F
:10013000DEBF0FBECDBFCF91DF910895DF93CF9388
:10014000CDB7DEB72C970FB6F894DEBF0FBECDBF8C
:1001500069877A878B879C8789859A85AB85BC85DB
:10016000880F991FAA1FBB1F880F991FAA1FBB1FAB
:10017000880F991FAA1FBB1F8A569340A040B0400A
:100180002BE230E040E050E0BC01CD010E9446058A
:10019000DA01C90189839A83AB83BC831D821E82E5
:1001A0001F8218860CC000008D819E81AF81B885AA
:1001B0000196A11DB11D8D839E83AF83B8872D81CC
:1001C0003E814F81588589819A81AB81BC812817F6
:1001D00039074A075B0738F32C960FB6F894DEBF51
:1001E0000FBECDBFCF91DF910895DF93CF93CDB7F1
:1001F000DEB728970FB6F894DEBF0FBECDBF1092C2
:1002000080000FC280918000882F90E0FC01E05AAE
:10021000FF4F8081282F30E038872F838F8198858A
:100220008130910509F48FC02F8138852230310546
:1002300031F08F819885009709F40DC1EDC180914F
:100240008000869586958695282F30E03E832D8305
:100250008D819E818130910571F12D813E81223009
:1002600031052CF48D819E81009769F0D5C12D81D7
:100270003E8122303105B9F18D819E818330910517
:1002800009F449C0C9C1AAE3B0E0EAE3F0E0808123
:10029000482F80918000882F90E09C01277030705B
:1002A00081E090E0022E02C0880F991F0A94E2F7C5
:1002B000842B8C93B1C1A7E3B0E0E7E3F0E0808149
:1002C000482F80918000882F90E09C01277030702B
:1002D00081E090E0022E02C0880F991F0A94E2F795
:1002E000842B8C9399C1A4E3B0E0E4E3F0E0808137
:1002F000482F80918000882F90E09C0127703070FB
:1003000081E090E0022E02C0880F991F0A94E2F764
:10031000842B8C9381C1A1E3B0E0E1E3F0E0808124
:10032000482F80918000882F90E09C0127703070CA
:1003300081E090E0022E02C0880F991F0A94E2F734
:10034000842B8C9369C180918000869586958695D3
:10035000282F30E03C832B838B819C818130910559
:1003600079F12B813C81223031052CF48B819C81E9
:10037000009769F051C12B813C8122303105C9F1D0
:100380008B819C818330910509F44CC045C1AAE35F
:10039000B0E0EAE3F0E08081482F80918000882F70
:1003A00090E09C012770307081E090E0022E02C046
:1003B000880F991F0A94E2F7809584238C932CC1AF
:1003C000A7E3B0E0E7E3F0E08081482F8091800070
:1003D000882F90E09C012770307081E090E0022E21
:1003E00002C0880F991F0A94E2F7809584238C93AA
:1003F00013C1A4E3B0E0E4E3F0E08081482F8091F2
:100400008000882F90E09C012770307081E090E0A0
:10041000022E02C0880F991F0A94E2F78095842368
:100420008C93FAC0A1E3B0E0E1E3F0E08081482FD3
:1004300080918000882F90E09C012770307081E0CF
:1004400090E0022E02C0880F991F0A94E2F780956F
:1004500084238C93E1C08091800086958695869553
:10046000282F30E03A83298389819A818130910550
:1004700009F446C029813A81223031052CF4898162
:100480009A81009771F0C8C029813A8122303105E4
:1004900009F465C089819A818330910509F48EC081
:1004A000BBC0AAE3B0E0EAE3F0E08081482F80918E
:1004B0008000882F90E09C012770307081E090E0F0
:1004C00002C0880F991F2A95E2F7809584238C93A8
:1004D000ABE3B0E0EBE3F0E08081482F8091800057
:1004E000882F90E09C012770307081E090E0022E10
:1004F00002C0880F991F0A94E2F7842B8C938CC05A
:10050000A7E3B0E0E7E3F0E08081482F809180002E
:10051000882F90E09C012770307081E090E002C04D
:10052000880F991F2A95E2F7809584238C93A8E37E
:10053000B0E0E8E3F0E08081482F80918000882FD0
:1005400090E09C012770307081E090E0022E02C0A4
:10055000880F991F0A94E2F7842B8C935DC0A4E363
:10056000B0E0E4E3F0E08081482F80918000882FA4
:1005700090E09C012770307081E090E002C0880F0D
:10058000991F2A95E2F7809584238C93A5E3B0E028
:10059000E5E3F0E08081482F80918000882F90E093
:1005A0009C012770307081E090E0022E02C0880F1D
:1005B000991F0A94E2F7842B8C932EC0A1E3B0E03C
:1005C000E1E3F0E08081482F80918000882F90E067
:1005D0009C012770307081E090E002C0880F991F65
:1005E0002A95E2F7809584238C93A2E3B0E0E2E3BE
:1005F000F0E08081482F80918000882F90E09C015E
:100600002770307081E090E0022E02C0880F991FA1
:100610000A94E2F7842B8C93809180008F5F809303
:10062000800080918000803208F4ECCD28960FB6CF
:10063000F894DEBF0FBECDBFCF91DF910895DF9359
:10064000CF9300D000D000D0CDB7DEB789836A83C6
:100650008A81813009F07FC089818695869586954B
:10066000282F30E03E832D838D819E81813091053E
:1006700069F12D813E81223031052CF48D819E81DE
:10068000009769F0EEC02D813E8122303105A9F13D
:100690008D819E818330910509F446C0E2C0ABE3B1
:1006A000B0E0EBE3F0E08081482F8981882F90E073
:1006B0009C012770307081E090E0022E02C0880F0C
:1006C000991F0A94E2F7842B8C93CBC0A8E3B0E087
:1006D000E8E3F0E08081482F8981882F90E09C0139
:1006E0002770307081E090E0022E02C0880F991FC1
:1006F0000A94E2F7842B8C93B4C0A5E3B0E0E5E361
:10070000F0E08081482F8981882F90E09C0127703C
:10071000307081E090E0022E02C0880F991F0A9489
:10072000E2F7842B8C939DC0A2E3B0E0E2E3F0E01B
:100730008081482F8981882F90E09C01277030703C
:1007400081E090E0022E02C0880F991F0A94E2F720
:10075000842B8C9386C08A81882309F082C089818A
:10076000869586958695282F30E03C832B838B8158
:100770009C818130910571F12B813C8122303105C2
:100780002CF48B819C81009769F06BC02B813C819C
:1007900022303105B9F18B819C818330910509F4B8
:1007A00049C05FC0ABE3B0E0EBE3F0E08081482FED
:1007B0008981882F90E09C012770307081E090E063
:1007C000022E02C0880F991F0A94E2F780958423B5
:1007D0008C9347C0A8E3B0E0E8E3F0E08081482FC5
:1007E0008981882F90E09C012770307081E090E033
:1007F000022E02C0880F991F0A94E2F78095842385
:100800008C932FC0A5E3B0E0E5E3F0E08081482FB2
:100810008981882F90E09C012770307081E090E002
:10082000022E02C0880F991F0A94E2F78095842354
:100830008C9317C0A2E3B0E0E2E3F0E08081482FA0
:100840008981882F90E09C012770307081E090E0D2
:10085000022E02C0880F991F0A94E2F78095842324
:100860008C9326960FB6F894DEBF0FBECDBFCF9106
:10087000DF910895DF93CF9300D00F92CDB7DEB70D
:1008800089838981869586958695282F30E03B83DC
:100890002A834A815B814130510509F43CC08A8139
:1008A0009B818230910534F42A813B8121153105E9
:1008B00071F09CC04A815B814230510509F44FC000
:1008C0008A819B818330910509F46DC08FC0E9E373
:1008D000F0E08081482F50E08981882F90E09C01D2
:1008E0002770307081E090E002C0880F991F2A9530
:1008F000E2F79A01282339238981882F90E08770B5
:100900009070A90102C0559547958A95E2F7CA01F2
:10091000809381006BC0E6E3F0E08081482F50E0D7
:100920008981882F90E09C012770307081E090E0F1
:1009300002C0880F991F2A95E2F79A0128233923CC
:100940008981882F90E087709070A90102C0559529
:1009500047958A95E2F7CA018093810047C0E3E397
:10096000F0E08081482F50E08981882F90E09C0141
:100970002770307081E090E002C0880F991F2A959F
:10098000E2F79A01282339238981882F90E0877024
:100990009070A90102C0559547958A95E2F7CA0162
:1009A0008093810023C0E0E3F0E08081482F50E095
:1009B0008981882F90E09C012770307081E090E061
:1009C00002C0880F991F2A95E2F79A01282339233C
:1009D0008981882F90E087709070A90102C0559599
:1009E00047958A95E2F7CA01809381008091810042
:1009F0000F900F900F90CF91DF910895DF93CF93D9
:100A0000CDB7DEB70E94F50080E061E00E941F03D1
:100A100081E00E943A04813069F488E061E00E943C
:100A20001F0380E161E00E941F0388E161E00E94F2
:100A30001F03EACF88E060E00E941F0380E160E0CE
:100A40000E941F0388E160E00E941F03DDCF629FC8
:100A5000D001739FF001829FE00DF11D649FE00DB6
:100A6000F11D929FF00D839FF00D749FF00D659F17
:100A7000F00D9927729FB00DE11DF91F639FB00D16
:100A8000E11DF91FBD01CF0111240895A1E21A2E25
:100A9000AA1BBB1BFD010DC0AA1FBB1FEE1FFF1F22
:100AA000A217B307E407F50720F0A21BB30BE40B72
:100AB000F50B661F771F881F991F1A9469F76095B9
:100AC0007095809590959B01AC01BD01CF01089573
:040AD000F894FFCFC8
:100AD40002000202020202020202020202020202F4
:100AE40002020202020202020202020202020202E2
:00000001FF
