:100000000C942A000C9447000C9447000C94470071
:100010000C9447000C9447000C9447000C94470044
:100020000C9447000C9447000C9494030C944700E4
:100030000C9447000C94D2040C9447000C94470095
:100040000C9447000C9447000C9447000C94470014
:100050000C94470011241FBECFE5D8E0DEBFCDBF12
:1000600010E0A0E6B0E0ECEFF2E102C005900D92E6
:10007000AE38B107D9F710E0AEE8B0E001C01D928C
:10008000A33CB107E1F70E940F060C947C090C9485
:100090000000DF93CF9300D00F92CDB7DEB78AE098
:1000A00089830E9439059B838A838A819B81803260
:1000B000910509F452C08A819B8181329105E0F457
:1000C0008A819B818230910509F43EC08A819B819F
:1000D0008330910530F48A819B818130910589F1CB
:1000E0004CC08A819B818430910589F18A819B81F2
:1000F0008031910579F141C08A819B8122E0803075
:100100009207A1F18A819B8122E08130920760F4FD
:100110008A819B818034910519F18A819B8121E03C
:100120008030920701F129C08A819B8124E08030D0
:100130009207F9F08A819B8120E280309207E1F0FA
:100140001CC081E0898319C082E0898316C083E0E6
:10015000898313C084E0898310C085E089830DC042
:1001600086E089830AC087E0898307C088E08983A5
:1001700004C089E0898301C0198289810F900F90A2
:100180000F90CF91DF910895DF93CF9300D000D0EF
:100190000F92CDB7DEB780919400909195009D832A
:1001A0008C838C819D818830910509F4C0C08C813D
:1001B0009D818930910558F48C819D810097A9F02B
:1001C0008C819D818530910509F440C0D6C08C8119
:1001D0009D818038910509F4B7C08C819D8128E00C
:1001E0008030920709F4BDC0C8C00E9439059093C1
:1001F0008F0080938E0080918E0090918F009B8362
:100200008A838A819B818038910561F08A819B81F4
:1002100028E08030920731F08A819B8188309105F7
:1002200009F0ABC086E090E090939100809390003D
:10023000109293001092920085E090E090939500C8
:100240008093940081E08093BB0097C080919000E0
:1002500090919100009709F44EC0809193008230F4
:1002600008F049C00E944900898389818A30C8F515
:1002700080919300882301F5A5E3B0E08981882F60
:1002800090E0FC01E05AFF4F80818C938981882F98
:1002900090E09C01220F331FC901880F991F880F1E
:1002A000991F820F931F8093920086E090E09093B5
:1002B00091008093900010C0ABE3B0E08981882F5B
:1002C00090E0FC01E05AFF4F80818C939091920066
:1002D0008981890F80939200809193008F5F809332
:1002E00093008091900090919100019790939100DC
:1002F0008093900042C0809190009091910000976F
:1003000079F080919300823059F480918E00909121
:100310008F0090939500809394001092BB002DC0A5
:1003200010929500109294001092BB0026C080910C
:1003300092008C3320F4809192008093B40010924C
:1003400095001092940019C0809192008C3320F493
:10035000809192008093B5001092950010929400C5
:100360000CC080919200883120F48091920080939B
:10037000B60010929500109294000F900F900F907D
:100380000F900F90CF91DF910895DF93CF93CDB76A
:10039000DEB7EAE3F0E08FEF8083E7E3F0E08FE0A1
:1003A0008083E4E3F0E08FEF8083E1E3F0E08EEC24
:1003B0008083CF91DF910895DF93CF9300D0CDB7A5
:1003C000DEB789836A838981883060F58A818823D2
:1003D000A1F4ABE3B0E0EBE3F0E08081482F89814A
:1003E000282F30E081E090E0022E02C0880F991F94
:1003F0000A94E2F7842B8C93B3C0ABE3B0E0EBE359
:10040000F0E08081482F8981282F30E081E090E062
:10041000022E02C0880F991F0A94E2F78095842368
:100420008C939EC08981883090F18981803178F5E4
:100430008981885089838A818823A1F4A8E3B0E068
:10044000E8E3F0E08081482F8981282F30E081E0C7
:1004500090E0022E02C0880F991F0A94E2F7842BC5
:100460008C937EC0A8E3B0E0E8E3F0E08081482F01
:100470008981282F30E081E090E0022E02C0880FB1
:10048000991F0A94E2F7809584238C9369C089812F
:10049000803190F18981883178F589818051898313
:1004A0008A818823A1F4A5E3B0E0E5E3F0E0808150
:1004B000482F8981282F30E081E090E0022E02C091
:1004C000880F991F0A94E2F7842B8C9349C0A5E307
:1004D000B0E0E5E3F0E08081482F8981282F30E00B
:1004E00081E090E0022E02C0880F991F0A94E2F783
:1004F000809584238C9334C08981883188F18981E7
:10050000803270F58981885189838A818823A1F49A
:10051000A2E3B0E0E2E3F0E08081482F8981282F58
:1005200030E081E090E0022E02C0880F991F0A940B
:10053000E2F7842B8C9314C0A2E3B0E0E2E3F0E096
:100540008081482F8981282F30E081E090E0022EC1
:1005500002C0880F991F0A94E2F7809584238C9338
:100560000F900F90CF91DF910895DF93CF9300D03C
:10057000CDB7DEB78A838A818830C0F4E9E3F0E042
:100580008081282F30E08A81882F90E0A90102C065
:10059000559547958A95E2F7CA0181709070882336
:1005A00011F0198265C081E0898362C08A81883038
:1005B000F0F08A818031D8F48A8188508A83E6E31A
:1005C000F0E08081282F30E08A81882F90E0A90117
:1005D00002C0559547958A95E2F7CA0181709070DF
:1005E000882311F0198244C081E0898341C08A8147
:1005F0008031F0F08A818831D8F48A8180518A83F1
:10060000E3E3F0E08081282F30E08A81882F90E0BA
:10061000A90102C0559547958A95E2F7CA018170F4
:100620009070882311F0198223C081E0898320C053
:100630008A818831E8F08A818032D0F48A818851B9
:100640008A83E0E3F0E08081282F30E08A81882FE0
:1006500090E0A90102C0559547958A95E2F7CA0135
:1006600081709070882311F0198202C081E0898323
:1006700089810F900F90CF91DF910895DF93CF93F1
:10068000CDB7DEB7CF91DF910895EF92FF920F9330
:100690001F93DF93CF93CDB7DEB780919A0081305F
:1006A000E1F710929A0010929B0037C0E0909600FC
:1006B000F0909700009198001091990080919B0014
:1006C000882F90E0880F991F0196880F991FFC01D1
:1006D000E559FF4F808191819C0140E050E0C801C5
:1006E000B7010E945A09DC01CB010097A105B105B1
:1006F00079F480919B00882F90E0880F991F880FD4
:10070000991FFC01E559FF4F0190F081E02D0995FB
:1007100080919B008F5F80939B0090919B008091C4
:100720008B00981718F2B9CF1F920F920FB60F9245
:1007300011248F939F93AF93BF93DF93CF93CDB744
:10074000DEB78091960090919700A0919800B091AB
:1007500099000196A11DB11D80939600909397007A
:10076000A0939800B093990081E080939A00CF9174
:10077000DF91BF91AF919F918F910F900FBE0F901E
:100780001F901895DF93CF93CDB7DEB7A8E5B0E003
:10079000E8E5F0E0808182608C93A3E5B0E0E3E5DA
:1007A000F0E0808188608C93A3E5B0E0E3E5F0E0C1
:1007B000808181608C93A3E5B0E0E3E5F0E0808187
:1007C0008D7F8C93A3E5B0E0E3E5F0E08081846069
:1007D0008C93ECE5F0E08CE98083A9E5B0E0E9E5F5
:1007E000F0E0808182608C93CF91DF910895DF9358
:1007F000CF9300D0CDB7DEB783E390E09A838983AF
:10080000E0E4F0E089819A81892F99278083E9E2E9
:10081000F0E089818083AAE2B0E0EAE2F0E0808142
:1008200088618C93A0E4B0E0E0E4F0E080818E6821
:100830008C93AAE2B0E0EAE2F0E0808180688C93D9
:100840000F900F90CF91DF910895DF93CF9300D059
:1008500000D000D0CDB7DEB79C838B837E836D83C1
:100860001A82198219C0EBE2F0E08081882F90E0B3
:10087000807290700097B9F3ACE2B0E02B813C81BC
:1008800089819A81F901E80FF91F80818C93898110
:100890009A8101969A83898329813A818D819E81EB
:1008A0002817390700F326960FB6F894DEBF0FBE5F
:1008B000CDBFCF91DF910895DF93CF9300D000D0CB
:1008C00000D0CDB7DEB79C838B837E836D83AFE58D
:1008D000B0E0EFE5F0E080818F778C93AAE2B0E0A2
:1008E000EAE2F0E080818F778C938091A600882FD8
:1008F00090E0ED81FE81918380831A82198213C07A
:100900002B813C8189819A81D901A80FB91F8981E6
:100910009A81FC01E456FF4F80818C9389819A81F2
:1009200001969A8389838091A600282F30E08981DF
:100930009A818217930720F31092A600AAE2B0E0F2
:10094000EAE2F0E0808180688C93AFE5B0E0EFE50B
:10095000F0E0808180688C9326960FB6F894DEBF15
:100960000FBECDBFCF91DF910895DF93CF93CDB769
:10097000DEB78091A600CF91DF910895DF93CF93EA
:10098000CDB7DEB78091A60081508093A6008091FC
:10099000A600882F90E0FC01E456FF4F8081CF91A4
:1009A000DF9108951F920F920FB60F9211242F938B
:1009B0008F939F93EF93FF93DF93CF93CDB7DEB7E2
:1009C0008091A600893080F48091A600882F90E065
:1009D000ECE2F0E02081FC01E456FF4F208380919F
:1009E000A6008F5F8093A600CF91DF91FF91EF91DA
:1009F0009F918F912F910F900FBE0F901F90189580
:100A0000DF93CF9300D00F92CDB7DEB79E012E5F5C
:100A10003F4FCE010196B9010E945C0489818F3F4E
:100A200029F488E060E00E94DC0104C088E061E015
:100A30000E94DC010F900F900F90CF91DF910895ED
:100A4000DF93CF9300D00F92CDB7DEB78FEF8B83BC
:100A500081E090E09A838983CE01039629813A81CF
:100A6000B9010E9425040F900F900F90CF91DF9154
:100A70000895DF93CF93CDB7DEB71092A800109200
:100A8000A7008BE061E00E94DC018AE060E00E9448
:100A9000DC0189E060E00E94DC0188E060E00E9407
:100AA000DC0180E00E9494058BE060E00E94DC01A4
:100AB0008AE061E00E94DC0189E060E00E94DC01E4
:100AC00088E060E00E94DC0181E00E9494058BE0F8
:100AD00060E00E94DC018AE060E00E94DC0189E0C5
:100AE00061E00E94DC0188E060E00E94DC0182E0BD
:100AF0000E9494058BE060E00E94DC018AE060E0E7
:100B00000E94DC0189E060E00E94DC0188E061E095
:100B10000E94DC0183E00E9494058091A7009091DF
:100B2000A800CF91DF910895DF93CF930F92CDB7B7
:100B3000DEB789838FE00E94B5028130A9F48981F4
:100B4000282F30E081E090E002C0880F991F2A959D
:100B5000E2F79C018091A7009091A800822B932B33
:100B60009093A8008093A7008EE00E94B502813088
:100B7000C1F48981882F90E09C012C5F3F4F81E078
:100B800090E002C0880F991F2A95E2F79C0180919E
:100B9000A7009091A800822B932B9093A80080939C
:100BA000A7008DE00E94B5028130C1F48981882FB1
:100BB00090E09C01285F3F4F81E090E002C0880FE9
:100BC000991F2A95E2F79C018091A7009091A800B7
:100BD000822B932B9093A8008093A7008CE00E9417
:100BE000B5028130C1F48981882F90E09C01245F97
:100BF0003F4F81E090E002C0880F991F2A95E2F7ED
:100C00009C018091A7009091A800822B932B909338
:100C1000A8008093A7000F90CF91DF910895DF93F4
:100C2000CF93CDB7DEB70E94C5010E94C2030E94D8
:100C3000F7038CE060E00E94DC018DE060E00E9440
:100C4000DC018EE060E00E94DC018FE060E00E9449
:100C5000DC018DE160E00E94DC018CE160E00E943B
:100C6000DC01AFE5B0E0EFE5F0E0808180688C93D7
:100C70000E944503CF91DF910895DF93CF9300D079
:100C800000D00F92CDB7DEB71B820E94B504882337
:100C9000D9F10E94BE048B838B8182958F708A83E9
:100CA0008B818F7089838A81282F30E03D832C834C
:100CB0008C819D8187309105B9F02C813D812D304B
:100CC0003105F9F08C819D8185309105E9F48981A8
:100CD000882329F48AE160E00E94DC0115C08AE1E2
:100CE00061E00E94DC0110C08981882329F48BE136
:100CF00060E00E94DC0108C08BE161E00E94DC0141
:100D000003C089818093C2000F900F900F900F90C5
:100D10000F90CF91DF910895DF93CF9300D0CDB79F
:100D2000DEB789838981882F90E0FC01E755FF4F6A
:100D300080811A82813011F481E08A838A810F9048
:100D40000F90CF91DF910895DF93CF93CDB7DEB7AA
:100D50008091AB009091AC00CF91DF910895DF932B
:100D6000CF930F92CDB7DEB71092B3007AC08091C7
:100D7000B300882F90E0FC01E457FF4F80810E9470
:100D8000B50289838091B300882F90E0FC01E35580
:100D9000FF4F90818981981709F048C08091B30076
:100DA000882F90E0880F991FFC01E155FF4F80814B
:100DB00091818230910510F18091B300882F90E0ED
:100DC000FC01E755FF4F898180838091B300882F14
:100DD00090E0FC01E755FF4F8081813051F4809114
:100DE000AB009091AC0002969093AC008093AB0066
:100DF0002AC01092AC001092AB0025C08091B300C5
:100E0000282F30E0C901880F991FFC01E155FF4FE1
:100E100080819181AC014F5F5F4FC901880F991F9D
:100E2000FC01E155FF4F518340830DC08091B30019
:100E3000882F90E0880F991FFC01E155FF4F81E05A
:100E400090E0918380838091B300882F90E0FC0133
:100E5000E355FF4F898180838091B3008F5F80933A
:100E6000B3008091B300823008F481CF0F90CF910E
:100E7000DF910895DF93CF93CDB7DEB78091B400B3
:100E80008F5F8093B4008091B4008C3390F4809194
:100E9000B4009AE0692F0E944E098093BD008091B2
:100EA000B4009AE0692F0E944E09892F8093BE00FA
:100EB00007C01092B4008091B5008F5F8093B50099
:100EC0008091B5008C3390F48091B5009AE0692F41
:100ED0000E944E098093BF008091B5009AE0692F6F
:100EE0000E944E09892F8093BC0007C01092B50064
:100EF0008091B6008F5F8093B6008091B6008831F4
:100F000090F48091B6009AE0692F0E944E09809378
:100F1000C0008091B6009AE0692F0E944E09892F87
:100F20008093C10002C01092B600CF91DF91089566
:100F3000DF93CF9300D000D00F92CDB7DEB70E94E1
:100F400039059A83898389819A818070907400978A
:100F500049F081ED8B83CE01039661E070E00E9441
:100F600025041BC089819A8199234CF482ED8C83DE
:100F7000CE01049661E070E00E9425040EC08981D4
:100F80009A8180709071009741F080ED8D83CE0141
:100F9000059661E070E00E9425040F900F900F907D
:100FA0000F900F90CF91DF910895DF93CF93CDB73E
:100FB000DEB7A5E3B0E08091BE00882F90E0FC0191
:100FC000E05AFF4F80818C93ABE3B0E08091BD008D
:100FD000882F90E0FC01E05AFF4F80818C93CF91E5
:100FE000DF910895DF93CF93CDB7DEB7A5E3B0E0EF
:100FF0008091BC00882F90E0FC01E05AFF4F808177
:101000008C93ABE3B0E08091BF00882F90E0FC01AF
:10101000E05AFF4F80818C93CF91DF910895DF9349
:10102000CF93CDB7DEB7A5E3B0E08091C100882FA4
:1010300090E0FC01E05AFF4F80818C93ABE3B0E07D
:101040008091C000882F90E0FC01E05AFF4F808122
:101050008C93CF91DF910895DF93CF9300D0CDB7DC
:10106000DEB78091C200282F30E03A83298389813E
:101070009A818130910561F029813A8122303105D0
:1010800051F089819A81009741F40E94D50705C0EB
:101090000E94F20702C00E940F080F900F90CF919C
:1010A000DF910895DF93CF93CDB7DEB780916A00CB
:1010B0008C3081F58091B7009091B800A091B90073
:1010C000B091BA0080709074A070B0700097A105C4
:1010D000B10521F08EE080936A0080C08091B70056
:1010E0009091B800A091B900B091BA00807090784A
:1010F000A070B0700097A105B10521F08FE080933A
:101100006A006CC08091BB00813009F467C00E9406
:10111000D50764C080916A008E3079F58091B70060
:101120009091B800A091B900B091BA008070907110
:10113000A070B0700097A105B10521F08CE08093FC
:101140006A004CC08091B7009091B800A091B9009E
:10115000B091BA0080709078A070B0700097A1052F
:10116000B10521F08FE080936A0038C08091BB0008
:101170008130A1F10E94F20731C080916A008F3066
:1011800069F58091B7009091B800A091B900B09135
:10119000BA0080709071A070B0700097A105B10581
:1011A00019F08CE080936A008091B7009091B800AC
:1011B000A091B900B091BA0080709074A070B07026
:1011C0000097A105B10521F08EE080936A0006C06A
:1011D0008091BB00813011F00E940F08CF91DF9108
:1011E0000895DF93CF930F92CDB7DEB780E00E94D2
:1011F0008C06882319F080E5898302C081E5898304
:10120000CE01019661E070E00E9425040F90CF911D
:10121000DF910895DF93CF930F92CDB7DEB781E0D2
:101220000E948C06882319F080E7898302C081E739
:101230008983CE01019661E070E00E9425040F9041
:10124000CF91DF910895DF93CF930F92CDB7DEB7A3
:101250000E94B5048823F1F00E94BE04898389812D
:10126000803529F480E160E00E94DC0107C08981BB
:10127000813521F480E161E00E94DC0189818037C1
:1012800029F487E160E00E94DC0104C087E161E0AD
:101290000E94DC010F90CF91DF910895991B79E0B6
:1012A00004C0991F961708F0961B881F7A95C9F7F6
:1012B00080950895A1E21A2EAA1BBB1BFD010DC04B
:1012C000AA1FBB1FEE1FFF1FA217B307E407F507F6
:1012D00020F0A21BB30BE40BF50B661F771F881FD2
:1012E000991F1A9469F760957095809590959B0168
:0C12F000AC01BD01CF010895F894FFCFC0
:1012FC00C0F9A4B0999282F880900C3A072800C4E7
:10130C00000A00AF0601000A090300F10803003DC2
:0E131C00060100980701002C080200081D1CA5
:00000001FF
